:0D004F00C2A37F0A7E0012005CD2A37F05D1
:10005C00E4FDFCC3ED9FEC9E5015E4FAFB0BBB00DA
:0F006C00010AEB64904A70F50DBD00010C80E4B1
:01007B002262
:10000300E4F583F58212004FA3E582640345837010
:10001300F47F327E0012005CE4F583F582C2A37F95
:1000230014120053A3E5826403458370F07F327E8C
:100033000012005CE4F583F58212004FA3E58264AD
:0C00430003458370F47F327E0002005CF5
:0F007C008B0A8A0B890CE94A4B7003120003228E
:0F008B007508007509017B007A00790802007C76
:0300000002009A61
:0C009A00787FE4F6D8FD75810C02008B25
:00000001FF
