:1000D20014083F065B4F666D7D077F6F777C395E44
:0600E20079717638400040
:10008F00E4FDFCFBFAC3EB9FEA9E5015E4FAFB0B71
:10009F00BB00010AEB64904A70F50DBD00010C80A6
:0100AF00E46C
:0100B000222D
:0800F7007580FFD2A7C2A72209
:0400B100AB07AA06E9
:1000B5007FFED2A7EDF8EF08800123D8FDF580C2B9
:0C00C500A774082BF8E6F580D2A6C2A6AE
:0100D100220C
:0E00E9001200F77D077F017E001200B180FE3D
:03000000020003F8
:0C000300787FE4F6D8FD75811B02004AEE
:10000F000200E9E493A3F8E493A34003F68001F21E
:10001F0008DFF48029E493A3F85407240CC8C333F2
:10002F00C4540F4420C8834004F456800146F6DFC1
:10003F00E4800B01020408102040809000D2E47E7F
:10004F00019360BCA3FF543F30E509541FFEE493B6
:10005F00A360010ECF54C025E060A840B8E493A37D
:10006F00FAE493A3F8E493A3C8C582C8CAC583CAA8
:10007F00F0A3C8C582C8CAC583CADFE9DEE780BE60
:0100E8000017
:00000001FF
