:10020E00090CE7F7F7F780F7FBC380010800030935
:03021E00000000DD
:06000E008B158A1689170C
:10001400E4FFFEFDE94A4B7056AB09AA0AA90B8519
:100024000882758300120167FD0508E508B408031A
:10003400E4F508E4FFED30E004D2B48002C2B4D2A7
:10004400B5C2B5EDC313FD0FBF08EAAB09AA0AA9EF
:100054000B900008120167FDAC060EEC60D5900011
:1000640008120167FF780108800103D8FD805DE56F
:100074000870A6AB15AA16A9178B098A0A890B85DD
:100084000882F583120167FD0508E508B40803E456
:10009400F508E4FFED30E004D2B48002C2B4D2B576
:1000A400C2B5EDC313FD0FBF08EAAB15AA16A91715
:1000B400900008120167FDAC060EEC60D5900008B4
:1000C400120167FF780108800103D8FD900008122F
:0600D4000194D2B6C2B691
:0100DA002203
:1001F900C2B5C2B6D2AFD2A9758901758CF8758A14
:05020900CDD28C80FE47
:03000B000201B639
:1001B600C0E0C083C082C0D075D000C000C001C0FE
:1001C60002C003C004C005C006C007758CF8758A56
:1001D600CD7B007A00790C12000ED007D006D00530
:1001E600D004D003D002D001D000D0D0D082D083AA
:0301F600D0E03224
:030000000200DB20
:0C00DB00787FE4F6D8FD75811702012241
:10016700BB010CE58229F582E5833AF583E022504D
:1001770006E92582F8E622BBFE06E92582F8E22297
:0D018700E58229F582E5833AF583E49322B1
:10019400F8BB010DE58229F582E5833AF583E8F0A1
:1001A400225006E92582C8F622BBFE05E92582C84D
:0201B400F22235
:1000E7000201F9E493A3F8E493A34003F68001F235
:1000F70008DFF48029E493A3F85407240CC8C3331A
:10010700C4540F4420C8834004F456800146F6DFE8
:10011700E4800B010204081020408090020EE47E68
:10012700019360BCA3FF543F30E509541FFEE493DD
:10013700A360010ECF54C025E060A840B8E493A3A4
:10014700FAE493A3F8E493A3C8C582C8CAC583CACF
:10015700F0A3C8C582C8CAC583CADFE9DEE780BE87
:0102210000DC
:00000001FF
