:03000000020101F9
:0C010100787FE4F6D8FD75814C020148BF
:1002020014393F065B4F666D7D077F6F777C395EE1
:1002120079717638400010290101010101010101C3
:1002220001010101010101011008010101010101A6
:10023200010101010101010101011018FFFFFFFF8E
:0F024200FFFFFFFFFFFFFFFFFFFFFFFF01280090
:10018D00854C80D2A6C2A675807FD2A7C2A7C2B069
:10019D00D2B1D2B2D2B3D2AFD2A9758901758CFCCE
:1001AD00758A67D28CE4FFE4FEEF25E025E0240894
:1001BD002EF8E6FDEF25E025E024292EF8E6FC6D6E
:1001CD006029EC7010EF25E025E02E2439F8E6F5D6
:1001DD0080D2A6D2A6EF25E025E024292EF8E6FD53
:1001ED00EF25E025E024082EF8A6050EBE04BA0F73
:0501FD00BF04B480B056
:03000B0002000EE2
:0D000E00C0E0C0D075D000C000C006C00723
:10001B00758CFC758A67E52825E025E02418F8E641
:10002B0025E0FFA2B4E4334FFFE52825E025E024CB
:10003B0018F8A607E52825E025E02419F8E625E0C1
:10004B00FFA2B5E4334FFFE52825E025E02419F89E
:10005B00A607E52825E025E0241AF8E625E0FFA20F
:10006B00B6E4334FFFE52825E025E0241AF8A60770
:10007B00E52825E025E0241BF8E625E0FFA2B7E400
:10008B00334FFFE52825E025E0241BF8A6077F006A
:10009B00E52825E025E024182FF8E6540FFE700E16
:1000AB00E52825E025E024292FF87600800FBE0FE8
:1000BB000CE52825E025E024292FF876010FBF0455
:1000CB00CF0528532803E52814601014601314601F
:1000DB001624037016D2B3C2B08010D2B0C2B18056
:0B00EB000AD2B1C2B28004D2B2C2B38C
:0B00F600D007D006D000D0D0D0E03200
:10010D0002018DE493A3F8E493A34003F68001F27A
:10011D0008DFF48029E493A3F85407240CC8C333F3
:10012D00C4540F4420C8834004F456800146F6DFC2
:10013D00E4800B0102040810204080900202E47E4E
:10014D00019360BCA3FF543F30E509541FFEE493B7
:10015D00A360010ECF54C025E060A840B8E493A37E
:10016D00FAE493A3F8E493A3C8C582C8CAC583CAA9
:10017D00F0A3C8C582C8CAC583CADFE9DEE780BE61
:0102510000AC
:00000001FF
