:1003E10014263F065B4F666D7D077F6F777C395E14
:0603F1007971763840002E
:1003C100E4FDFCC3ED9FEC9E5015E4FAFB0BBB0072
:0F03D100010AEB64904A70F50DBD00010C80E449
:0103E00022FA
:0803F8007580FFD2A7C2A72205
:1002D5008B0C8A0D890E20B0297F147E001203C174
:1002E50020B01FAB0CAA0DA90E1200D1EF24FFFF01
:1002F500EE34FFFEED34FFFDEC34FFFC1200F1306F
:10030500B0FD20B1267F147E001203C120B11CABC5
:100315000CAA0DA90E1200D1EF2401FFE43EFEE464
:0C0325003DFDE43CFC1200F130B1FD2273
:060331007B007A00790C4C
:060337008B228A238924B9
:10033D00E4F5251200D1E47B0AFAF9F812003FEB3F
:10034D002430F525AB22AA23A924C003C002C00185
:10035D001200D1E47B0AFAF9F812003FD001D00265
:07036D00D0031200F1AF25DF
:010374002266
:04037500AB07AA0622
:100379007FFEE4F580D2A6C2A6EDF8EF088001233E
:10038900D8FDF580D2A7C2A774262BF8E6F580D24E
:03039900A6C2A653
:01039C00223E
:080163008F0F8E0E8D0D8C0C28
:10016B00120331EF24D0FFE434FFF5108F1112038B
:10017B0031EF24D0FFE434FFF5128F13120331EF6C
:10018B0024D0FFE434FFF5148F15120331EF24D084
:10019B00FFE434FFF5168F17120331EF24D0FFE481
:1001AB0034FFF5188F19120331EF24D0FFE434FF1D
:1001BB00F51A8F1B120331EF24D0FFE434FFF51C2B
:1001CB008F1D120331EF24D0FFE434FFF51E8F1F78
:1001DB00E4F520F521F582F583F520F521E4F5838F
:1001EB00F582E4FDAF1FAE1E1203750DAF1DAE1CE5
:1001FB001203750DAF1BAE1A1203750DAF19AE18A6
:10020B001203750DAF17AE161203750DAF15AE14A5
:10021B001203750DAF13AE121203750DAF11AE10A5
:10022B00120375A3E5826490458370B60521E52121
:0D023B0070020520C394B8E520940B40A08C
:010248002293
:10039D00E4750BFE750AFFF509F5081203F87B00ED
:1003AD007A0079081202D5AF0BAE0AAD09AC08126E
:0403BD00016380EA6E
:03000000020249B0
:0C024900787FE4F6D8FD75813902029040
:1000030075F008758200EF2FFFEE33FECD33CDCCB4
:1000130033CCC58233C5829BED9AEC99E582984037
:100023000CF582EE9BFEED9AFDEC99FC0FD5F0D614
:10003300E4CEFBE4CDFAE4CCF9A88222B800C1B93E
:100043000059BA002DEC8BF084CFCECDFCE5F0CB7C
:10005300F97818EF2FFFEE33FEED33FDEC33FCEBB5
:1000630033FB10D703994004EB99FB0FD8E5E4F970
:10007300FA227818EF2FFFEE33FEED33FDEC33FC5D
:10008300C933C910D7059BE99A4007EC9BFCE99A51
:10009300F90FD8E0E4C9FAE4CCFB2275F010EF2F96
:1000A300FFEE33FEED33FDCC33CCC833C810D70796
:1000B3009BEC9AE899400AED9BFDEC9AFCE899F8D1
:0E00C3000FD5F0DAE4CDFBE4CCFAE4C8F92264
:1000D100BB010789828A830201175005E9F80201F1
:1000E1000BBBFE05E9F802012389828A8302012FF5
:1000F100BB010789828A8302014B5005E9F802019D
:0A0101003FBBFE05E9F8020157229A
:1002550002039DE493A3F8E493A34003F68001F21F
:1002650008DFF48029E493A3F85407240CC8C333AA
:10027500C4540F4420C8834004F456800146F6DF79
:10028500E4800B01020408102040809003E1E47E25
:10029500019360BCA3FF543F30E509541FFEE4936E
:1002A500A360010ECF54C025E060A840B8E493A335
:1002B500FAE493A3F8E493A3C8C582C8CAC583CA60
:1002C500F0A3C8C582C8CAC583CADFE9DEE780BE18
:0103F7000005
:0C010B00E6FC08E6FD08E6FE08E6FF2220
:0C011700E0FCA3E0FDA3E0FEA3E0FF225B
:0C012300E2FC08E2FD08E2FE08E2FF2218
:10012F00E493FC740193FD740293FE740393FF2216
:0C013F00ECF608EDF608EEF608EFF622EC
:0C014B00ECF0A3EDF0A3EEF0A3EFF02227
:0C015700ECF208EDF208EEF208EFF222E4
:00000001FF
