:10047A00140E3F065B4F666D7D077F6F777C395E92
:10048A00797176384000040A0000FFFE0108000175
:02049A0009FE59
:10049D00E4FDFCC3ED9FEC9E5015E4FAFB0BBB0095
:0F04AD00010AEB64904A70F50DBD00010C80E46C
:0104BC00221D
:10031B00D2AFD2A9758CFB758A0FD28C7580FFD2A8
:10032B00A7C2A720B03C7F0A7E0012049D20B032EA
:10033B00C2907FFF7EE07DF57C05AB0DAA0CA90B6F
:10034B00A80AC312030A5015E50D2401F50DE43577
:10035B000CF50CE4350BF50BE4350AF50AD29030AD
:10036B00B0FD20B1BE7F0A7E0012049D20B1B4C245
:10037B0090E4FFFDFCAB0DAA0CA90BA80AD312034A
:10038B000A4018E50D24FFF50DE50C34FFF50CE5DF
:10039B000B34FFF50BE50A34FFF50AD29020B1833D
:0203AB0080FBD5
:10000E00D2A6E4F580C2A6E508B4080040030202B9
:10001E003B900026F828287302003E020071020071
:10002E00B70200FD0201420201860201C902020B63
:10003E00D2A67B807A9679987800AF0DAE0CAD0B78
:10004E00AC0A120278740E2FF8E6F580C2A6AF093C
:10005E00A808EF08800123D8FDF580D2A7C2A775A6
:10006E00080122D2A67B807A9679987800AF0DAEE1
:10007E000CAD0BAC0A120278AC00AD01AE02AF03B0
:10008E007B407A42790F7800120278740E2FF8E6D0
:10009E00F580C2A6AF09A808EF08800123D8FDF5A8
:1000AE0080D2A7C2A775080222D2A67B407A4279D7
:1000BE000F7800AF0DAE0CAD0BAC0A120278AC008F
:1000CE00AD01AE02AF037BA07A86790178001202F1
:1000DE0078740E2FF8E6F580C2A6AF09A808EF08CF
:1000EE00800123D8FDF580D2A7C2A775080322D2BE
:1000FE00A67BA07A8679017800AF0DAE0CAD0BAC65
:10010E000A120278AC00AD01AE02AF03E47B107AA6
:10011E0027F9F8120278740E2FF8E6F580C2A6AF12
:10012E0009A808EF08800123D8FDF580D2A7C2A741
:10013E0075080422D2A6E47B107A27F9F8AF0DAE2B
:10014E000CAD0BAC0A120278AC00AD01AE02AF03DF
:10015E00E47BE87A03F9F8120278740E2FF8E6F5CC
:10016E0080C2A6AF09A808EF08800123D8FDF5804C
:10017E00D2A7C2A775080522D2A6E47BE87A03F9B6
:10018E00F8AF0DAE0CAD0BAC0A120278AC00AD019F
:10019E00AE02AF03E47B64FAF9F8120278740E2F04
:1001AE00F8E6F580C2A6AF09A808EF08800123D8AB
:1001BE00FDF580D2A7C2A775080622D2A6E47B64FD
:1001CE00FAF9F8AF0DAE0CAD0BAC0A120278AC001A
:1001DE00AD01AE02AF03E47B0AFAF9F812027874AD
:1001EE000E2FF8E6F580C2A6AF09A808EF08800129
:1001FE0023D8FDF580D2A7C2A775080722D2A6E4A0
:10020E007B0AFAF9F8AF0DAE0CAD0BAC0A12027800
:10021E00740E2BF8E6F580C2A6AF09A808EF088089
:0D022E000123D8FDF580D2A7C2A7E4F50892
:01023B0022A0
:03000B00020439B3
:10043900C0E0C0F0C083C082C0D075D000C000C089
:1004490001C002C003C004C005C006C007758CFB0B
:10045900758A0F12000ED007D006D005D004D0033C
:10046900D002D001D000D0D0D082D083D0F0D0E05B
:010479003250
:030000000203AD4B
:0C03AD00787FE4F6D8FD7581210203F48E
:10023C0075F008758200EF2FFFEE33FECD33CDCC79
:10024C0033CCC58233C5829BED9AEC99E5829840FC
:10025C000CF582EE9BFEED9AFDEC99FC0FD5F0D6D9
:10026C00E4CEFBE4CDFAE4CCF9A88222B800C1B903
:10027C000059BA002DEC8BF084CFCECDFCE5F0CB41
:10028C00F97818EF2FFFEE33FEED33FDEC33FCEB7A
:10029C0033FB10D703994004EB99FB0FD8E5E4F935
:1002AC00FA227818EF2FFFEE33FEED33FDEC33FC22
:1002BC00C933C910D7059BE99A4007EC9BFCE99A16
:1002CC00F90FD8E0E4C9FAE4CCFB2275F010EF2F5B
:1002DC00FFEE33FEED33FDCC33CCC833C810D7075B
:1002EC009BEC9AE899400AED9BFDEC9AFCE899F896
:0E02FC000FD5F0DAE4CDFBE4CCFAE4C8F92229
:10030A00EB9FF5F0EA9E42F0E99D42F0E89C45F049
:01031A0022C0
:1003B90002031BE493A3F8E493A34003F68001F23C
:1003C90008DFF48029E493A3F85407240CC8C33345
:1003D900C4540F4420C8834004F456800146F6DF14
:1003E900E4800B010204081020408090047AE47E26
:1003F900019360BCA3FF543F30E509541FFEE49309
:10040900A360010ECF54C025E060A840B8E493A3CF
:10041900FAE493A3F8E493A3C8C582C8CAC583CAFA
:10042900F0A3C8C582C8CAC583CADFE9DEE780BEB2
:01049C00005F
:00000001FF
