:1003CA0014223F065B4F666D7D077F6F777C395E2F
:0603DA0079717638400045
:1003AA00E4FDFCC3ED9FEC9E5015E4FAFB0BBB0089
:0F03BA00010AEB64904A70F50DBD00010C80E460
:0103C9002211
:0803E1007580FFD2A7C2A7221C
:1002BE008B0C8A0D890E20B0297F147E001203AAA2
:1002CE0020B01FAB0CAA0DA90E1200D1EF24FFFF18
:1002DE00EE34FFFEED34FFFDEC34FFFC1200F13086
:1002EE00B0FD20B1267F147E001203AA20B11CABF4
:1002FE000CAA0DA90E1200D1EF2401FFE43EFEE47C
:0C030E003DFDE43CFC1200F130B1FD228A
:06031A007B007A00790C63
:060320008B1E8A1F8920DC
:10032600E4F5211200D1E47B0AFAF9F812003FEB5A
:100336002430F521AB1EAA1FA920C003C002C001AC
:100346001200D1E47B0AFAF9F812003FD001D0027C
:07035600D0031200F1AF21FA
:01035D00227D
:04035E00AB07AA0639
:100362007FFEE4F580D2A6C2A6EDF8EF0880012355
:10037200D8FDF580D2A7C2A774222BF8E6F580D269
:03038200A6C2A66A
:010385002255
:080163008F0F8E0E8D0D8C0C28
:10016B0012031AEF24D0FFE434FFF5108F111203A2
:10017B001AEF24D0FFE434FFF5128F1312031AEF9A
:10018B0024D0FFE434FFF5148F1512031AEF24D09B
:10019B00FFE434FFF5168F1712031AEF24D0FFE498
:1001AB0034FFF5188F1912031AEF24D0FFE434FF34
:1001BB00F51A8F1B12031AEF24D0FFE434FFF51C42
:1001CB008F1D12031AEF24D0FFE434FF8F82F583C7
:1001DB00E4F9E9C394B87480948B504AE4FCAF8281
:1001EB00AE83E4FD12035E0DAF1DAE1C12035E0D5C
:1001FB00AF1BAE1A12035E0DAF19AE1812035E0DD4
:10020B00AF17AE1612035E0DAF15AE1412035E0DD3
:10021B00AF13AE1212035E0DAF11AE1012035E0CD4
:06022B00BC90BB0980AC91
:0102310022AA
:10038600E4750BFE750AFFF509F5081203E17B001B
:100396007A0079081202BEAF0BAE0AAD09AC08129C
:0403A600016380EA85
:03000000020232C7
:0C023200787FE4F6D8FD75813502027972
:1000030075F008758200EF2FFFEE33FECD33CDCCB4
:1000130033CCC58233C5829BED9AEC99E582984037
:100023000CF582EE9BFEED9AFDEC99FC0FD5F0D614
:10003300E4CEFBE4CDFAE4CCF9A88222B800C1B93E
:100043000059BA002DEC8BF084CFCECDFCE5F0CB7C
:10005300F97818EF2FFFEE33FEED33FDEC33FCEBB5
:1000630033FB10D703994004EB99FB0FD8E5E4F970
:10007300FA227818EF2FFFEE33FEED33FDEC33FC5D
:10008300C933C910D7059BE99A4007EC9BFCE99A51
:10009300F90FD8E0E4C9FAE4CCFB2275F010EF2F96
:1000A300FFEE33FEED33FDCC33CCC833C810D70796
:1000B3009BEC9AE899400AED9BFDEC9AFCE899F8D1
:0E00C3000FD5F0DAE4CDFBE4CCFAE4C8F92264
:1000D100BB010789828A830201175005E9F80201F1
:1000E1000BBBFE05E9F802012389828A8302012FF5
:1000F100BB010789828A8302014B5005E9F802019D
:0A0101003FBBFE05E9F8020157229A
:10023E00020386E493A3F8E493A34003F68001F24D
:10024E0008DFF48029E493A3F85407240CC8C333C1
:10025E00C4540F4420C8834004F456800146F6DF90
:10026E00E4800B01020408102040809003CAE47E53
:10027E00019360BCA3FF543F30E509541FFEE49385
:10028E00A360010ECF54C025E060A840B8E493A34C
:10029E00FAE493A3F8E493A3C8C582C8CAC583CA77
:1002AE00F0A3C8C582C8CAC583CADFE9DEE780BE2F
:0103E000001C
:0C010B00E6FC08E6FD08E6FE08E6FF2220
:0C011700E0FCA3E0FDA3E0FEA3E0FF225B
:0C012300E2FC08E2FD08E2FE08E2FF2218
:10012F00E493FC740193FD740293FE740393FF2216
:0C013F00ECF608EDF608EEF608EFF622EC
:0C014B00ECF0A3EDF0A3EEF0A3EFF02227
:0C015700ECF208EDF208EEF208EFF222E4
:00000001FF
