:10011700C18014093F065B4F666D7D077F6F777C53
:0B012700395E7971763840000108FF56
:10009A00D201E4FFF580D2A6C2A675807FD2A7C29C
:1000AA00A72409F8E6F580D2A6C2A6D2AFD2A975CE
:1000BA008901758CF8758ACDD28CA200300101B302
:1000CA0050F82000F50FBF0A02E4FF74092FF8E682
:0C00DA00F580D2A6C2A6A200920180DE32
:03000B000200E60A
:0900E600C0E0C0D075D000C007D5
:1000EF00758CF8758ACDD2B0E50825E0FFA2B0E493
:1000FF00334FF5087004C2008007E508B4FF02D241
:01010F0000EF
:07011000D007D0D0D0E0328F
:0300000002000EED
:0C000E00787FE4F6D8FD758120020055D3
:10001A0002009AE493A3F8E493A34003F68001F262
:10002A0008DFF48029E493A3F85407240CC8C333E7
:10003A00C4540F4420C8834004F456800146F6DFB6
:10004A00E4800B0102040810204080900117E47E2E
:10005A00019360BCA3FF543F30E509541FFEE493AB
:10006A00A360010ECF54C025E060A840B8E493A372
:10007A00FAE493A3F8E493A3C8C582C8CAC583CA9D
:10008A00F0A3C8C582C8CAC583CADFE9DEE780BE55
:0101320000CC
:00000001FF
