:10040600140D3F065B4F666D7D077F6F777C395E07
:0F04160079717638400004090000FFFE010800EC
:1003E600E4FDFCC3ED9FEC9E5015E4FAFB0BBB004D
:0F03F600010AEB64904A70F50DBD00010C80E424
:0104050022D4
:10031B00D2AFD2A9758CFC758A67D28C7580FFD24F
:10032B00A7C2A720B0387F0A7E001203E620B02EAA
:10033B007FFF7EE07DF57C05AB0CAA0BA90AA80913
:10034B00C312027E5015E50C2401F50CE4350BF5B8
:10035B000BE4350AF50AE43509F50930B0FD20B197
:10036B00C27F0A7E001203E620B1B8E4FFFDFCABAE
:10037B000CAA0BA90AA809D312027E4018E50C247B
:10038B00FFF50CE50B34FFF50BE50A34FFF50AE539
:0A039B000934FFF50920B18B80FB47
:10000E00E4F580E508B4080040030201AF90002239
:10001E00F828287302003A02005C0200910200C622
:10002E000200FA02012D02015F020190D2A67B802E
:10003E007A9679987800AF0CAE0BAD0AAC09120126
:10004E00EC740D2FF8E6F580C2A675080122D2A633
:10005E007B807A9679987800AF0CAE0BAD0AAC091E
:10006E001201ECAC00AD01AE02AF037B407A4279D7
:10007E000F78001201EC740D2FF8E6F580C2A6750C
:10008E00080222D2A67B407A42790F7800AF0CAEDE
:10009E000BAD0AAC091201ECAC00AD01AE02AF0320
:1000AE007BA07A86790178001201EC740D2FF8E6A8
:1000BE00F580C2A675080322D2A67BA07A867901A6
:1000CE007800AF0CAE0BAD0AAC091201ECAC00AD72
:1000DE0001AE02AF03E47B107A27F9F81201EC743B
:1000EE000D2FF8E6F580C2A675080422D2A6E47B91
:1000FE00107A27F9F8AF0CAE0BAD0AAC091201EC71
:10010E00AC00AD01AE02AF03E47BE87A03F9F8125E
:10011E0001EC740D2FF8E6F580C2A675080522D203
:10012E00A6E47BE87A03F9F8AF0CAE0BAD0AAC0986
:10013E001201ECAC00AD01AE02AF03E47B64FAF940
:10014E00F81201EC740D2FF8E6F580C2A6750806BC
:10015E0022D2A6E47B64FAF9F8AF0CAE0BAD0AAC72
:10016E00091201ECAC00AD01AE02AF03E47B0AFA5A
:10017E00F9F81201EC740D2FF8E6F580C2A6750899
:10018E000722D2A6E47B0AFAF9F8AF0CAE0BAD0A41
:10019E00AC091201EC740D2BF8E6F580C2A6E4F55D
:0101AE000848
:0101AF00222D
:03000B000203A548
:1003A500C0E0C0F0C083C082C0D075D000C000C01E
:1003B50001C002C003C004C005C006C007758CFC9F
:1003C500758A6712000ED007D006D005D004D00379
:1003D500D002D001D000D0D0D082D083D0F0D0E0F0
:0103E50032E5
:0300000002028F6A
:0C028F00787FE4F6D8FD7581200202D6CD
:1001B00075F008758200EF2FFFEE33FECD33CDCC06
:1001C00033CCC58233C5829BED9AEC99E582984089
:1001D0000CF582EE9BFEED9AFDEC99FC0FD5F0D666
:1001E000E4CEFBE4CDFAE4CCF9A88222B800C1B990
:1001F0000059BA002DEC8BF084CFCECDFCE5F0CBCE
:10020000F97818EF2FFFEE33FEED33FDEC33FCEB06
:1002100033FB10D703994004EB99FB0FD8E5E4F9C1
:10022000FA227818EF2FFFEE33FEED33FDEC33FCAE
:10023000C933C910D7059BE99A4007EC9BFCE99AA2
:10024000F90FD8E0E4C9FAE4CCFB2275F010EF2FE7
:10025000FFEE33FEED33FDCC33CCC833C810D707E7
:100260009BEC9AE899400AED9BFDEC9AFCE899F822
:0E0270000FD5F0DAE4CDFBE4CCFAE4C8F922B5
:10027E00EB9FF5F0EA9E42F0E99D42F0E89C45F0D6
:01028E00224D
:10029B0002031BE493A3F8E493A34003F68001F25B
:1002AB0008DFF48029E493A3F85407240CC8C33364
:1002BB00C4540F4420C8834004F456800146F6DF33
:1002CB00E4800B0102040810204080900406E47EB9
:1002DB00019360BCA3FF543F30E509541FFEE49328
:1002EB00A360010ECF54C025E060A840B8E493A3EF
:1002FB00FAE493A3F8E493A3C8C582C8CAC583CA1A
:10030B00F0A3C8C582C8CAC583CADFE9DEE780BED1
:0104250000D6
:00000001FF
