:1003610014223F065B4F666D7D077F6F777C395E98
:06037100797176384000AE
:10034100E4FDFCC3ED9FEC9E5015E4FAFB0BBB00F2
:0F035100010AEB64904A70F50DBD00010C80E4C9
:01036000227A
:080388007580FFD2A7C2A72275
:0602D5007B007A007908AD
:0602DB008B1E8A1F892022
:1002E100E4F5211200D1E47B0AFAF9F812003FEBA0
:1002F1002430F521AB1EAA1FA920C003C002C001F2
:100301001200D1E47B0AFAF9F812003FD001D002C1
:07031100D0031200F1AF213F
:0103180022C2
:04031900AB07AA067E
:10031D007FFEE4F580D2A6C2A6EDF8EF088001239A
:10032D00D8FDF580D2A7C2A774222BF8E6F580D2AE
:03033D00A6C2A6AF
:01034000229A
:080163008F0B8E0A8D098C0838
:10016B001202D5EF24D0FFE434FFF50C8F0D1202F1
:10017B00D5EF24D0FFE434FFF50E8F0F1202D5EF2D
:10018B0024D0FFE434FFF5108F111202D5EF24D0E9
:10019B00FFE434FFF5128F131202D5EF24D0FFE4E6
:1001AB0034FFF5148F151202D5EF24D0FFE434FF82
:1001BB00F5168F171202D5EF24D0FFE434FFF51894
:1001CB008F191202D5EF24D0FFE434FFF51A8F1BE1
:1001DB00E4F51CF51DF582F583F51CF51DE4F5839F
:1001EB00F582E4FDAF1BAE1A1203190DAF19AE1851
:1001FB001203190DAF17AE161203190DAF15AE146E
:10020B001203190DAF13AE121203190DAF11AE106D
:10021B001203190DAF0FAE0E1203190DAF0DAE0C6D
:10022B00120319A3E5826490458370B6051DE51D85
:0D023B007002051CC394B8E51C940B40A094
:010248002293
:100378001203887F007E007D017C0012016380FEED
:03000000020249B0
:0C024900787FE4F6D8FD75813502029044
:1000030075F008758200EF2FFFEE33FECD33CDCCB4
:1000130033CCC58233C5829BED9AEC99E582984037
:100023000CF582EE9BFEED9AFDEC99FC0FD5F0D614
:10003300E4CEFBE4CDFAE4CCF9A88222B800C1B93E
:100043000059BA002DEC8BF084CFCECDFCE5F0CB7C
:10005300F97818EF2FFFEE33FEED33FDEC33FCEBB5
:1000630033FB10D703994004EB99FB0FD8E5E4F970
:10007300FA227818EF2FFFEE33FEED33FDEC33FC5D
:10008300C933C910D7059BE99A4007EC9BFCE99A51
:10009300F90FD8E0E4C9FAE4CCFB2275F010EF2F96
:1000A300FFEE33FEED33FDCC33CCC833C810D70796
:1000B3009BEC9AE899400AED9BFDEC9AFCE899F8D1
:0E00C3000FD5F0DAE4CDFBE4CCFAE4C8F92264
:1000D100BB010789828A830201175005E9F80201F1
:1000E1000BBBFE05E9F802012389828A8302012FF5
:1000F100BB010789828A8302014B5005E9F802019D
:0A0101003FBBFE05E9F8020157229A
:10025500020378E493A3F8E493A34003F68001F244
:1002650008DFF48029E493A3F85407240CC8C333AA
:10027500C4540F4420C8834004F456800146F6DF79
:10028500E4800B0102040810204080900361E47EA5
:10029500019360BCA3FF543F30E509541FFEE4936E
:1002A500A360010ECF54C025E060A840B8E493A335
:1002B500FAE493A3F8E493A3C8C582C8CAC583CA60
:1002C500F0A3C8C582C8CAC583CADFE9DEE780BE18
:010377000085
:0C010B00E6FC08E6FD08E6FE08E6FF2220
:0C011700E0FCA3E0FDA3E0FEA3E0FF225B
:0C012300E2FC08E2FD08E2FE08E2FF2218
:10012F00E493FC740193FD740293FE740393FF2216
:0C013F00ECF608EDF608EEF608EFF622EC
:0C014B00ECF0A3EDF0A3EEF0A3EFF02227
:0C015700ECF208EDF208EEF208EFF222E4
:00000001FF
