:10034C00141E3F065B4F666D7D077F6F777C395EB1
:06035C00797176384000C3
:10032A00E4FDFCFBFAC3EB9FEA9E5015E4FAFB0BD3
:10033A00BB00010AEB64904A70F50DBD00010C8008
:01034A00E4CE
:01034B00228F
:080373007580FFD2A7C2A7228A
:0602BE007B007A007908C4
:0602C4008B1A8A1B891C45
:1002CA00E4F51D1200D1E47B0AFAF9F812003FEBBB
:1002DA002430F51DAB1AAA1BA91CC003C002C00119
:1002EA001200D1E47B0AFAF9F812003FD001D002D9
:0702FA00D0031200F1AF1D5B
:0103010022D9
:04030200AB07AA0695
:100306007FFEE4F580D2A6C2A6EDF8EF08800123B1
:10031600D8FDF580D2A7C2A7741E2BF8E6F580D2C9
:03032600A6C2A6C6
:0103290022B1
:080163008F0B8E0A8D098C0838
:10016B001202BEEF24D0FFE434FFF50C8F0D120208
:10017B00BEEF24D0FFE434FFF50E8F0F1202BEEF5B
:10018B0024D0FFE434FFF5108F111202BEEF24D000
:10019B00FFE434FFF5128F131202BEEF24D0FFE4FD
:1001AB0034FFF5148F151202BEEF24D0FFE434FF99
:1001BB00F5168F171202BEEF24D0FFE434FFF518AB
:1001CB008F191202BEEF24D0FFE434FF8F82F58328
:1001DB00E4F9E9C394B87480948B504AE4FCAF8281
:1001EB00AE83E4FD1203020DAF19AE181203020D1C
:1001FB00AF17AE161203020DAF15AE141203020D9C
:10020B00AF13AE121203020DAF11AE101203020D9B
:10021B00AF0FAE0E1203020DAF0DAE0C1203020C9C
:06022B00BC90BB0980AC91
:0102310022AA
:100363001203737F007E007D017C0012016380FE17
:03000000020232C7
:0C023200787FE4F6D8FD75813102027976
:1000030075F008758200EF2FFFEE33FECD33CDCCB4
:1000130033CCC58233C5829BED9AEC99E582984037
:100023000CF582EE9BFEED9AFDEC99FC0FD5F0D614
:10003300E4CEFBE4CDFAE4CCF9A88222B800C1B93E
:100043000059BA002DEC8BF084CFCECDFCE5F0CB7C
:10005300F97818EF2FFFEE33FEED33FDEC33FCEBB5
:1000630033FB10D703994004EB99FB0FD8E5E4F970
:10007300FA227818EF2FFFEE33FEED33FDEC33FC5D
:10008300C933C910D7059BE99A4007EC9BFCE99A51
:10009300F90FD8E0E4C9FAE4CCFB2275F010EF2F96
:1000A300FFEE33FEED33FDCC33CCC833C810D70796
:1000B3009BEC9AE899400AED9BFDEC9AFCE899F8D1
:0E00C3000FD5F0DAE4CDFBE4CCFAE4C8F92264
:1000D100BB010789828A830201175005E9F80201F1
:1000E1000BBBFE05E9F802012389828A8302012FF5
:1000F100BB010789828A8302014B5005E9F802019D
:0A0101003FBBFE05E9F8020157229A
:10023E00020363E493A3F8E493A34003F68001F270
:10024E0008DFF48029E493A3F85407240CC8C333C1
:10025E00C4540F4420C8834004F456800146F6DF90
:10026E00E4800B010204081020408090034CE47ED1
:10027E00019360BCA3FF543F30E509541FFEE49385
:10028E00A360010ECF54C025E060A840B8E493A34C
:10029E00FAE493A3F8E493A3C8C582C8CAC583CA77
:1002AE00F0A3C8C582C8CAC583CADFE9DEE780BE2F
:01036200009A
:0C010B00E6FC08E6FD08E6FE08E6FF2220
:0C011700E0FCA3E0FDA3E0FEA3E0FF225B
:0C012300E2FC08E2FD08E2FE08E2FF2218
:10012F00E493FC740193FD740293FE740393FF2216
:0C013F00ECF608EDF608EEF608EFF622EC
:0C014B00ECF0A3EDF0A3EEF0A3EFF02227
:0C015700ECF208EDF208EEF208EFF222E4
:00000001FF
